:1000000068160020797C00007D7C0000210500003E
:1000100000000000000000000000000000000000E0
:10002000000000000000000000000000817C0000D3
:100030000000000000000000837C0000E96F000069
:10004000877C0000C90800000000000000000000DC
:100050000000000000000000F9390000000000006E
:100060000000000000000000877C0000000000008D
:10007000877C0000877C0000877C0000877C000074
:1000800017780000000000000000000000000000E1
:100090000000000000000000000000000000000060
:1000A000877C000089790000877C00000000000048
:1000B000BD070000E5070000877C0000877C00008A
:1000C00000F002F800F032F80CA030C8083824180C
:1000D0002D18A246671EAB4654465D46AC4201D180
:1000E00000F024F87E460F3E0FCCB6460126334280
:1000F00000D0FB1AA246AB46334318479CCA000007
:10010000BCCA00000023002400250026103A01D3B9
:1001100078C1FBD8520700D330C100D50B607047BF
:100120001FB507F03FFE1FBD10B510BD07F0F2FE72
:100130001146FFF7F5FF00F07AF907F00AFF03B464
:10014000FFF7F2FF03BC07F00FFF0000014801605A
:1001500001480047240006400103FF1F30B40C494A
:100160000C684A6823681068C0181060241D121DAE
:100170008C4207D28A4208D20C604A6030BC4000F0
:10018000400870470C00DC3CF6E70A00DC3AF3E775
:10019000FC13002070B503F077FAE54801780029D8
:1001A00073D000240470E3490868002805D0401E7D
:1001B0000860002801D1E0480470E04A012110885D
:1001C0000225002812D0401E80B2108000280DD1D8
:1001D000DB485123037089234370DA480170DA4BFE
:1001E0001878002802D0401E18701580D74A108851
:1001F000002806D0401E80B21080002801D1D448CB
:100200000170D449086800283FD0401E08600028CB
:100210003BD106F00AFE07F0F8FA07F046FBCE499C
:10022000086880229043086002F099FE02F08CFE7C
:1002300007F025FAC9480168C94A4908490011432D
:100240000160C848046100F0E1FA03F060FDC64EA9
:1002500030690921C906884330610A2007F049FB4B
:1002600000F0AAFC3461C148056030BF046000F0B2
:1002700025FB06F0B1FE07F0A5FB07F0F4FA02F04B
:10028000A1FD07F0CFFA07F006FA70BD70B5A848D7
:10029000B74D01780024002905D004702888002873
:1002A00001D0401E288003F08DF9B2480069800714
:1002B00031D5288800282ED1C82007F020FB07F070
:1002C000DEF906F0B2FD07F0A0FA07F0EEFAA24858
:1002D000016880229143016002F041FE02F034FE89
:1002E0009E4801689E4A49084900114301609D48A3
:1002F000046103F00CFD06F0A7FD00F052FB06F0D0
:100300006BFE07F05FFB07F0AEFA02F05BFD07F053
:1003100089FA07F0C0F9984D2878012806D10822FB
:10032000964900F05BF9002800D12C70944D287894
:10033000012807D110229349022000F04FF900282C
:1003400000D12C70904D2878012816D08F4D287838
:1003500001281BD08E4D2878012820D0794D28788F
:10036000002809D07649052008700422022000F0F8
:1003700035F9002800D12C7070BD03228549022078
:1003800000F02CF90028F7D12C7070BD02228249B0
:10039000104600F023F90028F7D12C7070BD05221B
:1003A0007E49022000F01AF90028F7D12C707B4812
:1003B0008470C470047170BD10B579480024C17890
:1003C000002900D0C470817800292FD0847075492D
:1003D0000888002810D0401E80B2088000280BD169
:1003E00071480078002802D0012803D004E003F00F
:1003F00087FA01E003F0B5FA6C490878401CC0B2F6
:100400000870322812D30C704949012008706849DD
:10041000088800280AD0401E80B20880002805D134
:1004200064480078D22801D106F054F910BD07F0D5
:100430007EFC07F037FC60480024046000F06FF990
:10044000574D2C710120C003C0895C49884201D1FD
:100450000120287107F007FA06F0BEFD0AF030FE11
:10046000514E3078012801D100F0A0F907F013F9BE
:100470002879002805D006F04AF90AF0BEFD34704C
:1004800003E003F056FB0AF092F901F075F907F06A
:1004900099FA4C494A4888614B4F4C4C2F48C760E9
:1004A000FFF78AFF20782979084301D002F050FC39
:1004B00005F088FF20782979084301D002F048FC34
:1004C0000AF06FFC3078002804D00128E6D1FFF74D
:1004D00061FEE3E7FFF7DAFEE0E710B506F092F819
:1004E00006F0F2F903F06EFA0AF0A4FD2C49487800
:1004F000401CC0B2487000230122022803D34B7075
:1005000033480270CA700878401CC0B208700428D2
:1005100005D30B708A7006F0E3F90AF097FD10BD61
:10052000BFF34F8F2C492B48C860BFF34F8FFEE7B6
:100530009401002088010020760100207A0100202B
:100540002801002004010020730100207C0100200C
:10055000C40100208C01002000E0054000000140A3
:100560000000FA5A00E000E000C0054040200340CF
:100570007801002034020020FF0000204501002007
:1005800003010020B502002001010020020100202B
:1005900000010020160100200F010020340100207E
:1005A0000000002090010020920100209301002013
:1005B00014010020F400002000200440AAAA00003A
:1005C00002C0000000000640AA55FA5A9A01002015
:1005D0000E0100200400FA0500ED00E0F8B5064623
:1005E0000D4617464248B10008180268002A01DB90
:1005F0000220F8BD002E03D0042E01D8402F01D9CF
:100600000420F8BD0068400F042801D00120F8BD87
:100610003848805D002804D0304600F03EF90320C1
:10062000F8BD354808180068B84201D20520F8BD69
:10063000701E3249800008580090002414E0295DA3
:10064000641C285D00020843641C295D0904014301
:10065000641C285D00060843641C0146009800F0F5
:1006600040FA0098001D0090BC42E8D3F9B2304631
:1006700000F0FBF90020F8BD70B5234B204C196841
:10068000228800251F4E481C002A0CD0012A15D0B4
:10069000022A1ED0032A05D1FF2925D201210904EF
:1006A0003160186070BDFF2904D2FF210131316033
:1006B000186070BD1D600120208070BDFF2904D22C
:1006C000FF2109043160186070BD1D600220208088
:1006D00070BDFF2904D2FF2109023160186070BD8E
:1006E0001D600320208070BD1D60258070BD00004E
:1006F00018C00540BD00002020020020100200208C
:10070000D0000020D8000020D4000020421E032A80
:1007100004D8F94A800080188038C167704770B5E6
:1007200000F0CEFD00F068FF07F001FB07F0BAFA19
:10073000F248016810231943016040210120FFF7AE
:10074000E5FF80210220FFF7E1FFC0210320FFF732
:10075000DDFFE0210420FFF7D9FFE94840210160D7
:1007600080224260C0228260E022C260E5480160CF
:10077000436083600821C1600161DF4CE248483C6E
:100780002060022060611F25ED06322007F0B7F8D7
:100790002561D948610408384162DC49C162012001
:1007A00000F01FFA012000F015FA70BDD2490020B8
:1007B00048390861D64902200860704710B51C20EE
:1007C00000F00FFAD449D3480862D44801690122E5
:1007D0009204114301610120CD4A01071160D04903
:1007E000087010BD10B51D2000F0FBF9CD49C948B7
:1007F0000862CA4801690122920411430161012083
:10080000C34A41071160C649087010BD70B5C2489F
:100810000025C5601F21C9014161BE4C0462816190
:100820001C2000F0DEF91C2000F0D4F9BD48C560A2
:100830000121C9034161046281611D2000F0D1F9E9
:100840001D2000F0C7F970BD10B5B3480021C1608C
:100850004161B04901620921C90181611C2000F098
:10086000C0F91C2000F0B6F910BD0120A249C00259
:1008700048398860704701209F4980024839886064
:10088000704701209C494002483988607047FF202A
:100890009949013048398860704704280DD8964A34
:1008A0008100303A8918002804D1934848384068BC
:1008B000C00102D4072040070860704710B507F058
:1008C00036FA00F0CBF910BD10B58B4C483C62688D
:1008D0000020C043A060002A08D0500F15D0002A85
:1008E00007DAFFF7EBFF00F095F93DE0FFF7E6FFD1
:1008F00010BD500002D500F0A2F935E0900033D5CC
:10090000FFF7DCFF00F0A1F92EE01002C00E18D0B6
:10091000100202D500F0FBFB26E0500202D500F0E9
:100920003AFC21E0900202D500F076FC1CE0D002F7
:10093000800F19D00320C004A0600020FFF7ADFF96
:1009400012E01005000F0FD0D00501D5FFF79FFF73
:10095000900501D5FFF795FF500501D5FFF78BFFF7
:10096000100501D5FFF781FF206810BD00206E49FA
:10097000401C8842FCD370471E20401E411CFCD105
:10098000704700B55C4A0620483A5061FFF7F4FF13
:1009900005205061FFF7EAFF506904218843506148
:1009A00000BDF8B55D4C2169022081432161524DA3
:1009B000483D6868400019D528690921C90688435F
:1009C000286102F00AFA02F0CAFA2069002700063C
:1009D000534E002802DA3770FFF718FF0A2006F09E
:1009E00088FF6868400002D4FFF768FFF8BD4F49F0
:1009F0000420086030BFFFF761FF30780028F5D091
:100A000037704B491420088021694A48884307D130
:100A100020690121890488432061A068012807D04A
:100A200068684000E2D52069022108432061F8BDD2
:100A3000FFF7A7FFF8BD30494839CA6B012383404F
:100A40009A43CA637047042805D82B49800030397F
:100A50004018002101607047042805D8264980000D
:100A600030394018090701607047042807D8224A26
:100A70008000303A801805225207891801607047BB
:100A80001D49383148600220C860C8688007FCD41E
:100A9000886829490860704700B50A46402A0ED286
:100AA000401E17498000085891084018FFF7E8FFDA
:100AB0009007C10E20480068C840C0B200BD0020A9
:100AC00000BD00B510290AD2401E0D4A8000105802
:100AD00089004018FFF7D4FF1748006800BD0020C8
:100AE00000BD054A3832506091600120D060D06866
:100AF000C007FCD17047000048C0054000E0054039
:100B00001002002020020020100000B0044000006D
:100B100080E100E0FFFF000000A00440340200205C
:100B2000BC000020008004400A2800004020034050
:100B30007801002080000400E000002030B50B4662
:100B4000402B15D2401E2A498000085899084518A4
:100B50002846FFF795FF274804689807C30EFF2033
:100B6000984084431146994021432846FFF7B9FF36
:100B700030BD1029BED2401E1D4B80001858890080
:100B800040181146ADE7B5E71B4A90631A480221A9
:100B90004030016001688907FCD4D06B17490860B8
:100BA000A8E7154A9063D1631348012140300160E2
:100BB0000168C907FCD19DE711480121C160C168E6
:100BC000C906FCD5022101610F4A0E4911600021BE
:100BD00001608FE7C106C90E012088400B490860FB
:100BE00088E7C106C90E012088400949086081E7ED
:100BF00010020020E000002040C00540DC00002082
:100C0000000006400200FA5A0020064000E100E021
:100C100080E200E010B50020F74AC0439060F74939
:100C20000120086100208860D060FFF736FE0124B3
:100C30002046FFF708FF641C042CF9D910BDEF48CB
:100C400001690222114301617047EC4801690422E5
:100C500011430161E849D00688607047E6480169A0
:100C60000922D206114301610121490681607047C2
:100C70000120E14980068860704710B5DF4CA0680C
:100C800001280CD1DE4A002000211154401C042808
:100C9000FBD92079012802D8A278002A03D00020AD
:100CA000FFF7FBFD10BDD74A1154FFF7C4FE2069C2
:100CB000012109040843206100210846FFF7D5FE01
:100CC00010BD10B5CD4CA068012814D12078812822
:100CD00011D1207901280ED8CA49095C0020FFF7FC
:100CE00060FF20690121C903084320610121002020
:100CF000FFF7BBFE10BD0020FFF7CFFD10BDF8B51C
:100D0000BF4DBE4E3069800607D5B0781021012452
:100D10000027002805D0012819D00020FFF7BDFDCD
:100D2000F8BDB7603069084330610127EC5538469B
:100D3000FFF789FE7F1C042FF8D9306901210904CF
:100D40000843306100210846FFF78FFEF8BDB4600C
:100D500030698843306100242F55002C0CD0204688
:100D6000FFF77AFEA4480069611EC840C00703D09F
:100D700000212046FFF779FE641C022CECD9306973
:100D8000012109040843306100210846FFF76DFE88
:100D9000F8BD70B5994DA9680020FFF702FFA8685B
:100DA000012806D101242046FFF756FE641C022CC0
:100DB000F9D9954800210160286903218903084376
:100DC000286101210020FFF750FE70BD10B5002002
:100DD000FFF763FD10BD10B504461806120410435A
:100DE00009020843204310BDF8B5884F3C6883488A
:100DF000854EC0883168884200D230603068002853
:100E00001DD00025E378A27861782078FFF7E3FF12
:100E10000146A800FFF7C5FE241D6D1CEDB2102D84
:100E2000F0D33068402815D340210020FFF71DFE85
:100E3000386840303860306840383060F8BD002194
:100E40000846FFF712FE6C48816901221207114320
:100E50008161F8BD3068C1B20020FFF706FE0020B6
:100E60003060F8BDF8B5002400206449684BCA78AA
:100E70000D798F780C26014671435E5CB24211D128
:100E8000C9184E78B5420DD18E78B7420AD10C22DE
:100E90005043C01882885C4802605C4889680160E1
:100EA000012402E0401C1028E4D3002C08D0534950
:100EB00008690122D20310430861FFF795FFF8BDCE
:100EC0000020FFF7EAFCF8BD10B54C48016920236B
:100ED0009943016101694022114301618178002930
:100EE00002D002691A4302610173016901221204EE
:100EF0001143016100210846FFF7B7FD10BD70B531
:100F00003E4D28784406640E000602D50020FFF707
:100F1000C4FC002C05D0022C0FD00020FFF7BDFC34
:100F200070BDA8780128FBD128693A490843286197
:100F300000210846FFF799FD70BDA8780028FBD175
:100F400028794006400E411E0129F5D8A9680129DB
:100F5000F2D12B4A1154FFF7A0FC286901210904A2
:100F60000843286100210846FFF77FFD70BD70B57A
:100F7000224D28784406640E000602D50020FFF7B3
:100F80008CFC002C1AD0022C17D1A878002814D180
:100F900028794006400E0022194BE10300281ED09C
:100FA00002280AD8AC68012C07D11A5428690843D2
:100FB000286100210846FFF758FD70BDA878012878
:100FC000FBD128698021884328612869114980392B
:100FD0000843286100210846FFF747FD70BD2869D6
:100FE0008006FBD51A70286908432861002108464D
:100FF000FFF73BFD70BD000000C00540340200203B
:10100000BD000020CC000020C8000020C40000204B
:10101000080000208001010070B5B84D2878440612
:10102000640EC00901D1FFF738FC0126F603002C3D
:1010300015D0012C27D0022CDCD128794006400E97
:101040000228D7D8AE49095C0020FFF7AAFD28691D
:101050003043286102210020FFF707FDCAE7286915
:10106000000604D502210020FFF79BFD03E00021CC
:101070000846FFF796FD28693043286102210020C9
:10108000FFF7F3FCB6E7A8680128B3D16879002818
:10109000B0D128790128ADD800210846FFF781FD9D
:1010A00028693043286102210020FFF7DEFCA1E718
:1010B00010B592484078030006F088FF0C070A2517
:1010C0000D25101316191C1F2225FFF7A5FF10BDB3
:1010D000FFF74DFF10BDFFF712FF10BDFFF7F4FE45
:1010E00010BDFFF7BFFE10BDFFF770FE10BDFFF78C
:1010F00050FE10BDFFF703FE10BDFFF7E2FD10BD6F
:10110000FFF7BBFD10BD0020FFF7C7FB10BD7CB58E
:1011100033207C4CC004A0600020FFF79DFC606879
:10112000400331D4754C20690321C90388432061F1
:101130000020FFF729FD744D286801900420FFF777
:1011400023FD286800900198C0B220700199090A17
:1011500061700199090CA1700199090EE170009963
:1011600021710099090A61710099090CE1806021DF
:101170000840002802D0202803D008E0FFF798FF9D
:101180007CBD00F007FA7CBD01208004A060002037
:10119000FFF783FB7CBD70B501205A4E8005B0601F
:1011A0005A4DA87C022815D10020A87468695849B6
:1011B00088420DD1A8695749884209D10024A0006E
:1011C0000021FFF7EEFC641C402CF8D3FEF7BEFFB5
:1011D0000420A874494C20694F4D40060CD5206965
:1011E000402188432061207BF0600020FFF755FB01
:1011F0002069A8432061FDE6E088002808D0206926
:10120000C00305D4FFF7F0FD2069A8432061F1E693
:101210000020FFF742FBEDE6F8B50121394849050A
:1012200081603A4DA87C384E012819D0686D800540
:101230000DD5686D0913884368650020FFF7A4FC8D
:1012400030682870686D01214903084368652B4C9C
:101250002069000425D400210846FFF706FC29E098
:101260000024A0000746FFF78FFC30687919486119
:10127000641C102CF5D30220A874686924498842A4
:1012800003D1A86923498842E1D02448012201788A
:1012900011430170224800780428D8D101F0C2FE21
:1012A000D5E718484168C90104D481690122D206F2
:1012B0001143816120690121C90388432061F8BD80
:1012C00000200F4A00211154401C0528FBD30020A8
:1012D000144A1154401C0428FBD308480170417083
:1012E0008170C17001714171C180816001730169B8
:1012F00001225204114301617047000034020020B2
:10130000BD00002000C00540DC0000204802002095
:10131000AA42895AFF7162CC00000100E800002057
:101320005C010020CC00002010B5B84A10782128BC
:101330001BD1B749486D01231B0318434865107939
:10134000012812D89078002804D14B6D0324A40200
:10135000A3434B65487410690121090408431061D7
:1013600000210846FFF781FB10BD0020FFF795FA2A
:1013700010BD10B5A5480178212914D101690122B9
:10138000120411430161A2494A6D0123DB021A4391
:101390004A650279012A06D8C078087400210846F7
:1013A000FFF763FB10BD0020FFF777FA10BD10B503
:1013B00097490120887400210846FFF756FB10BDAD
:1013C00010B592480169012212041143016190484D
:1013D000416DD2111143416500210846FFF745FBDD
:1013E00010BD10B589480178212907D1017900295C
:1013F00004D1C078022805D0032806D00020FFF7CA
:101400004CFA10BDFFF7DCFF10BDFFF7D0FF10BD99
:1014100010B57E4C2078A12816D17D48416DC904B5
:1014200001D401214174217901290DD8417C00208A
:10143000FFF7B7FB20690121C9030843206101219F
:101440000020FFF712FB10BD0020FFF726FA10BDA9
:1014500010B56E480178A12908D16D494A6D012364
:10146000DB021A434A650279002A03D00020FFF705
:1014700014FA10BD0A7C67490A6001690122D2038F
:101480001143016101210020FFF7EFFA10BD10B5F3
:101490006149002008605D4801690122D2031143BF
:1014A000016105210020FFF7E0FA10BDF8B55B4EA1
:1014B00002213078084330700024554DA0004119B6
:1014C000496900910099FFF76CFB641CE4B2102C91
:1014D000F4D34E4801690122D20311430161402136
:1014E0000020FFF7C2FA687DAB2806D13078FD21D5
:1014F000084030704A4904200870F8BD10B54448CF
:1015000001780020FFF74DFB404801690122D2031A
:101510001143016101210020FFF7A7FA10BD10B5AA
:101520003D4900200860394801690122D203114376
:10153000016108210020FFF798FA10BD10B533486B
:101540000178A1291FD1816801291CD10179C078B6
:10155000002902D0012910D015E0012804D002286A
:1015600005D0032806D00EE0FFF7D9FF10BDFFF726
:10157000C5FF10BDFFF79AFF10BD2549497C012921
:1015800001D1012803D00020FFF787F910BDFFF734
:101590007EFF10BD10B51D484078030006F016FD13
:1015A0000C19070A0D191919191910131619FFF733
:1015B000C5FF10BDFFF74CFF10BDFFF729FF10BDA1
:1015C000FFF70FFF10BDFFF7D4FE10BDFFF7ACFE15
:1015D00010BD0020FFF761F910BD10B50E490020C5
:1015E00008600A4801690122D20311430161052103
:1015F0000020FFF73AFA10BD05487D210174012152
:10160000417400218174416570470000340200205C
:1016100048020020E4000020C8000020E80000206C
:101620005C010020F0B591B000204D4A4D4B4E4D6D
:101630000024410054525C526C52401C80B27E28FF
:10164000F7D3012006F089F906F0DFF80025072717
:101650003F0301AE0020AA0181008B18DB191B6833
:101660007350401C80B21028F6D30120C00310181C
:1016700001AA102105F086FC6D1CADB2162DE9D330
:10168000002081007450401C80B21028F9D301AAB8
:101690001021364805F076FC344801AA102140306C
:1016A00005F070FC432001AA1021400205F06AFCFD
:1016B0002E4801AA1021C03005F064FC01AA1021B7
:1016C0002B4805F05FFC06F099F811B0F0BDF8B5B5
:1016D0000024284D065D2E55641CA4B2402CF9D37D
:1016E000002404E00E5DA718EE55641CA4B29C42D1
:1016F000F8D3204A402105F015FC012800D1FEE76F
:10170000F8BDF8B58646944600241548154F164A8C
:101710000026650046537E535653641CA4B27E2CAB
:10172000F7D30020134A03E00C5C1454401C80B231
:101730009842F9D37046604404460E4A402105F0B1
:10174000F1FB012809D00B4A2046403040324021AD
:1017500005F0E8FB012801D1FEE7FEE7F8BD000037
:101760000A070020060800200209002080850000EA
:1017700080860000360E0020FC49002048700320BF
:101780002F3908700220C91F0870F949012008701C
:10179000F64906201139087005200C390870F64901
:1017A000F4480880704770B500240020EF4D295C94
:1017B0000C43401CC0B20828F9D3EC4A0123593A23
:1017C0000021002C07D0D374517200202954401CF2
:1017D000C0B20828FAD300240120E54D2E5C344322
:1017E000401CC0B21028F9D3002C06D0D3750120BC
:1017F0002954401CC0B21028FAD300240120DB4D2C
:101800002F3D2E5C3443401CC0B20328F9D3002C7A
:1018100006D0537501202954401CC0B20328FAD3C6
:10182000D24836384478002C01D09375417000249A
:101830000120CE4D113D2E5C3443401CC0B2052822
:10184000F9D3002C06D0137501202954401CC0B2D6
:101850000528FAD370BDF0B5C44B593B187A1C4625
:1018600001464207E57AE039520F0124072912D8D0
:10187000DC74BE48012D007807D0C0495933895C1B
:10188000FF22514008401870F0BDBC4BB7499A5C2C
:1018900010430870F0BD0146B0390E461F2912D81A
:1018A0005C75B24903222F39012D04D00A70002043
:1018B00048708870F0BDB24B7000185A0A704870BA
:1018C000000A8870F0BD0146A839022918D89C7515
:1018D000A64AAA4C363A10462338007A022320182A
:1018E0005178C038012D06D01370007EFF23584078
:1018F00001405170F0BD1370007E01435170F0BD86
:101900009A4B9A4E593B597A1B7A7718DE08984BB6
:10191000F318012D13D000294ED0944DBE78593DB7
:101920006D7A6D1EAE46EDB2AC46864228D10021DE
:101930008E4DB970593DEC74614669723CE08B4D37
:10194000593D062911D200290AD00022874B05E013
:101950009E18B6788642D2D0521C92B28A42F7D3F1
:10196000B870491C6972EC74F0BD7828FCD2EC7533
:101970007F48047081495878895C08435870F0BDED
:1019800000267A4F16E0BD19AD78854210D177490F
:10199000593904E0B819C2788270761CB6B276451F
:1019A000F8DB0020BA199070CC7460464872F0BD24
:1019B000761CB6B28E42E6D36C4959397828F6D2F5
:1019C000CC756B4804706D495878895CFF22514092
:1019D00008405870F0BDF8B5644D393D687800286E
:1019E00054D02F4644373868401C386079688842A4
:1019F0004CD300243C60284620302E460088203EF0
:101A0000716C800040184168090109097960C27849
:101A100069460A70807848700021D30900D00121FE
:101A200070231A406B461A70504B113B102A04D099
:101A3000202A0FD0302A0FD016E0012232754B4AEF
:101A4000113A5278002902D002435A700CE08243C6
:101A50005A7009E0187107E03072F472002901D061
:101A60000120F072FFF7F7FE404919390888801C01
:101A700080B208804A88904208D3F07F002802D0C4
:101A8000012804D010E06C70FFF78DFEF8BD374AD6
:101A9000343A1078401CC0B210705278904203D390
:101AA0006C70FFF780FEF8BDB07F364A800080186A
:101AB000006C344A403280183C600A227A600C8004
:101AC000028808304A807064F8BD70B50020274C49
:101AD000593C2178491CC9B221701E2935D30025F3
:101AE0002570217B01290DD0607B00282DD0264652
:101AF00020363078401CC0B23070C10728D0FFF7C4
:101B000052FE2DE0A17E002906D0012906D002292F
:101B100007D0032908D009E01B4807E01A484030E5
:101B200004E04320400201E01748C030617E425C7F
:101B3000002A0BD0425C2272491CC9B26176405C1B
:101B4000E072491C6176FFF786FE70BD257370BD9B
:101B50000121E172616C4008085C2072FFF77BFE96
:101B600030780728F3D3657370BD0000450100206D
:101B7000B502002030750000D8010020FE8D000065
:101B8000BE8D00008097000080850000F0B5F94A06
:101B9000107901282CD100211171002015464D35F6
:101BA0002954401CC0B20628FAD3907A01281FD1CC
:101BB0000020F14EF14F18E04200B15CF04C4B07B1
:101BC0005B0FE35CC908EF4C890061580B420AD1F6
:101BD00091194B78EC4C9906490F5B075B0F6A5CD7
:101BE000E35C1A436A54401CC0B239888842E3D38C
:101BF000F0BDFEB593200002C06BE449884201D0DD
:101C00000120FEBDDB49E248CA79805C800001907A
:101C1000E04A01988018006C6B46C2B21A70030447
:101C20001C0E6B465C7003021D0E6B469D70000E11
:101C3000D8700290002A0BD00E46F07A002720368A
:101C4000130006F0C3F908900723333E47558390ED
:101C50000120FEBD01220A75C64B4833012C02D07B
:101C6000032C0FD07FE0EA06D20E69468A70C14984
:101C700048314978002802D01143597073E09143EC
:101C8000597070E000286ED01D716CE0B94B59336B
:101C90001A78002802D022431A7001E0A2431A7079
:101CA0000120C8740D72002D5DD0FEBD01224A7561
:101CB000B0492A314F708F70002854D04C708D700D
:101CC00051E001228A75AB4923314F7001284AD176
:101CD0004C7048E0022C09D1012807D10876A548AC
:101CE00005223C30027047708570C7700F723AE071
:101CF000002825D07078002806D0FFF754FD9D48B5
:101D0000C17F02291FD007729A498C77CD77084688
:101D100025300770029A427037709F4AA0008018E1
:101D2000006C9D4A40328018012373700A46643269
:101D300017605360243A1780038808305380486442
:101D40008C4807720FE077700020FEBD002809D094
:101D5000012048730F708F4B019A4033D2184A64A8
:101D60003070CF710F720020FEBD10B58B4800217E
:101D70000378804A002B04D0D37E012B0FD0017052
:101D800010BD5176012202708548018000207C4AF6
:101D900025321154401CC0B27828FAD310BD01700E
:101DA000D176917E7F4800290ED0012913D00229D7
:101DB00018D003291DD00429F0D1714978230022BD
:101DC0002531FFF784FC10BD6D49782300222531B1
:101DD000FFF77DFC10BD6A49782300222531FFF70B
:101DE00076FC10BD6649782300222531FFF76FFC91
:101DF00010BD6349782300222531FFF768FC10BD30
:101E0000FEB55C4E0024F17E3046C07A002915D024
:101E1000B17A002912D1327AAF2A05D0717E7829A1
:101E200003D3347204F063FDFEBD554B25335A5481
:101E3000491CC9B25854491C717634725A4A317AD5
:101E400013780125972970D098296FD0574A9B297C
:101E500012789446564A127869D0574E554F3678C4
:101E60000196761C3F78F6B2ED2970D09E296FD08E
:101E7000D3296ED03F4BDA296CD01E46474BD02970
:101E80001B78009367D0D82966D0E92965D04B4BE1
:101E9000D6291B7862D0D72961D0494BD4291B7829
:101EA0005ED0D5295DD0474FF1293B785AD0F02933
:101EB00059D0454EF329337856D0F22955D0434BAB
:101EC000F4291B7852D0E82951D0922950D0932977
:101ED0004FD094297ED095297DD096297CD0DC29BD
:101EE0007BD0DD297AD0DE2979D0DF2978D0A029EE
:101EF00077D0A12976D0A22975D0A32974D0A4299E
:101F000073D0A52972D01B4AEC2970D01346127BDE
:101F10001C296DD018296CD00C296BD012296AD0DD
:101F2000132981D1002803D17EE765E094E0E1E048
:101F3000274800780028F7D0002AF5D11C701D73BF
:101F4000042098761C725C76FFF72DFCFEBDF9E04C
:101F500022E12DE14EE15AE1BEE1C8E1CDE1E0E14F
:101F6000F3E106E219E22BE255E268E27BE295E258
:101F70009BE2A4E2EC000020FC8C0000FC7F00004F
:101F8000A0020020088E0000FE8D00000000AA556F
:101F9000AC8B00008090000080970000AA01002018
:101FA000CA010020808500009B0100209A010020CA
:101FB000B1010020A501002098010020AE01002001
:101FC000AC010020F6010020F8010020F4010020FF
:101FD000808600007DE287E291E29BE2B1E2C8E206
:101FE000DFE2F6E20DE324E33BE352E369E37FE360
:101FF000A0E3AFE3BFE3D0E334720028A6D0F848F3
:10200000012B1DD0022B1ED00E2B1FD00D2B20D04C
:102010000570072000030279F2490A704179F248FD
:10202000017001F043FDF1480570F1480470F1487A
:10203000047004F0C1F804F0C9F804F0B9FBFEBD67
:1020400002210170E5E70E210170E2E70D21017028
:10205000DFE70C210170DCE734720028EFD0E048A4
:102060000A2B2AD0002B2AD00B2B2BD0092B2CD0BB
:10207000082B2DD0042B2ED0052B2FD0032B30D0A6
:10208000102B31D0112B32D00A2101700720000310
:102090000279D4490A704179D348017001F006FDF4
:1020A000D2480570D2480470D248047004F084F815
:1020B00004F08CF804F07CFBFEBD0470E6E70B2115
:1020C0000170E3E709210170E0E708210170DDE715
:1020D00004210170DAE705210170D7E703210170BF
:1020E000D4E710210170D1E711210170CEE70F2153
:1020F0000170CBE734720028DED06046122803D08E
:10210000B7491320087006E0BB49521CD0B20870D2
:10211000052800D90D70072000030279B1490A7023
:102120004179B148017001F0C1FCB0480570B04878
:102130000470B048047004F03FF804F047F804F06D
:1021400037FBFEBDAD490C720028FAD0A448062B1F
:1021500018D006210170072000030279A1490A70F6
:102160004179A148017001F0A1FCA0480570A04888
:102170000470A048047004F01FF804F027F804F07D
:1021800017FBFEBD9E480670BE4200D9047004F0E5
:102190001DF804F00DFBFEBD98490C720028FAD022
:1021A00098480178002901D00470FEBD0570FEBD7D
:1021B00092490C720028FAD089495B1CD8B2087089
:1021C000132800D30C7007200003027985490A7098
:1021D00041798548017001F069FC844805708448A4
:1021E00004708448047003F0E7FF03F0EFFF04F08D
:1021F000DFFAFEBD1C720028FBD081480670BE428B
:1022000000D9047003F0E2FF04F0D2FAFEBD34728C
:102210000028FBD060461228F8D1012A07D0022AF4
:1022200005D0032A03D0042A01D0052AEED1009953
:10223000704800291CD0047001980828E6D30120BA
:10224000C003012A20D0022A25D0032A2AD0042A3A
:102250002FD021208002052A32D0062A36D0072A24
:10226000D4D1FF227E2301326749FFF74AFAFEBD2F
:102270000570664804800020634AFF211154401C09
:10228000C0B27E28FAD3FEBD01227E2352025E49EF
:10229000FFF737FAFEBD05227E23D2015A49FFF728
:1022A00030FAFEBD03227E2312025749FFF729FAB6
:1022B000FEBD07227E23D2015349FFF722FAFEBD5D
:1022C0007E2300225049FFF71CFAFEBD7E238022A8
:1022D0004D49FFF716FAFEBD34720028FBD0444882
:1022E0000178012901D00570FEBD0470FEBD347275
:1022F0000028FBD035737476FEBD34720028FBD005
:102300003949062B0AD25B1CD8B2087037490D70C8
:10231000B5740628F0D104F0EAFAFEBD04F0E7FA3D
:10232000FEBD34720028FBD02F49012B0AD95B1E59
:10233000D8B208702D490D70B5740128F0D104F0A1
:10234000D6FAFEBD04F0D3FAFEBD34720028FBD0ED
:10235000244C062B0AD25B1C237001F0A7FBB5743A
:1023600020780628F0D104F0C2FAFEBD04F0BFFACE
:10237000FEBD34720028FBD01A4C012B0AD95B1E1B
:10238000237001F093FBB57420780128F0D104F09C
:10239000AEFAFEBD04F0ABFAFEBD34720028FBD0ED
:1023A000052B0AD25B1C3B7008F02AF8B57438780C
:1023B0000528F1D104F09BFAFEBD04F098FAFEBDA9
:1023C00034720028FBD0012B22D95B1E3B7008F031
:1023D00017F8B57438780028F1D104F088FAFEBDFA
:1023E0009B010020AC010020AE0100209D010020D7
:1023F000B0010020AA010020B1010020EC00002063
:1024000098010020C20100204F050020CA010020D1
:1024100004F06DFAFEBDF74F3C720028FAD0062B8F
:102420000AD25B1C337008F0ABF9BD743078052814
:10243000F0D104F05CFAFEBD04F059FAFEBDED4F98
:102440003C720028FAD0012B0AD95B1E337008F0C9
:1024500097F9BD7430780028F0D104F048FAFEBD39
:1024600004F045FAFEBDE3490C720028FAD0032BB4
:1024700007D0042B05D0E048017800290CD0047067
:10248000FEBDDE490878401CC0B20870082800D3A1
:102490000C7004F08DF9FEBD0570FEBDD5490C72BF
:1024A0000028FAD0FFF761FCFEBDD2490C7200286B
:1024B000FAD08C7600980028F6D0CD76FEBDCD49B6
:1024C0000C720028FAD08D7600980028F6D0CD76D0
:1024D000FEBDC8490C720028FAD002208876009808
:1024E0000028F5D0CD76FEBDC2490C720028FAD086
:1024F0000320887600980028F5D0CD76FEBDBD4932
:102500000C720028FAD00420887600980028F5D0B4
:10251000CD76FEBDB7490C720028FAD0B848012A22
:1025200002D161461229F4D00570B6480470B6494C
:102530001320087003F040FE03F048FE04F038F961
:10254000FEBDAC490C720028FAD0AD48022A02D177
:1025500061461229F4D002210170AA480470AA49E8
:102560001320087003F028FE03F030FE04F020F979
:10257000FEBDA0490C720028FAD0A148032A02D15E
:1025800061461229F4D0032101709E4804709E49CF
:102590001320087003F010FE03F018FE04F008F991
:1025A000FEBD94490C720028FAD09548042A02D145
:1025B00061461229F4D004210170924804709249B6
:1025C0001320087003F0F8FD03F000FE04F0F0F8AB
:1025D000FEBD88490C720028FAD08948052A02D12C
:1025E00061461229F4D0052101708648047086499D
:1025F0001320087003F0E0FD03F0E8FD04F0D8F8C4
:10260000FEBD7C490C720028FAD07D48062A02D112
:1026100061461229F4D0062101707A4804707A4983
:102620001320087003F0C8FD03F0D0FD04F0C0F8DB
:10263000FEBD70490C720028FAD07148072A02D1F9
:1026400061461229F4D0072101706E4804706E496A
:102650001320087003F0B0FD03F0B8FD04F0A8F8F3
:10266000FEBD64490C720028FAD06548082A02D1E0
:1026700061461229F4D00821017062480470624951
:102680001320087003F098FD03F0A0FD04F090F80B
:10269000FEBD58490C720028FAD05948092A02D1C7
:1026A00061461229F4D00921017056480470564938
:1026B0001320087003F080FD03F088FD04F078F823
:1026C000FEBD4C490C720028FAD04D48002A02D1B8
:1026D00061461229F4D004704A4804704A49132014
:1026E000087003F069FD03F071FD04F061F8FEBDB0
:1026F00014720028FBD045495B1CD8B2087006282C
:1027000000D30C7007200003017B3170407B3870D0
:102710003A490320087008F033F807F071FE364894
:1027200004703B48047008F084FB07F0FDFF04F0E0
:102730003FF8FEBD0028FCD0364800780028F8D0CD
:10274000002AF6D11C701D739C761C725C76FFF714
:102750002AF8FEBD0028FCD02E4840300078002822
:10276000F7D0002AF5D11C701D739D761C725C7623
:10277000FFF719F8FEBD0028FCD043204002007886
:102780000028F7D0002AF5D11C701D73022098761E
:102790001C725C76FFF707F8FEBD0028FCD01D48D0
:1027A000C03000780028F7D0002AF5D11C701D73C6
:1027B000032098761C725C76FEF7F5FFFEBD10B51F
:1027C0000C48017AD22901D0012010BDC27A002123
:1027D000002A23D0104A1378002B07D01170FEF77F
:1027E00021FF01F0A6F907F0E2FF18E01E210185A4
:1027F00015E00000EC000020EF010020F5010020B2
:10280000B10100209A0100209B010020F40100206A
:10281000FB010020808500000400002001850020CD
:1028200010BD10B50020FF49FD4B097AFE4A05E0B6
:1028300044001C5D8C4205D0401CC0B21488A042EC
:10284000F6D3FF2010BDF0B5F64CF54FE07A2646E2
:102850005336F64D002812D0A07A00280ED0FFF78C
:10286000E0FFFF280AD04100C91949782172C10848
:102870004007400F725C285C02437254F0BDFFF7C2
:10288000D0FFFF28FAD0C20843075B0FB15CEB5CB6
:102890001942F3D04000C019407820729943B154D6
:1028A000F0BDF8B5DF4E307A002826D070780024CD
:1028B000002805D0F07A002802D07470FEF7B2FE2E
:1028C000FFF7C1FFFFF77BFF002816D03485FFF725
:1028D00097FA307A002810D00125AE2806D0D128EA
:1028E0000ED0A62816D026281ED028E0F07A01287F
:1028F00003D1307C012801D03574F8BD3474F8BDA3
:10290000F07A0128FBD1B07B012801D0B573F8BD66
:10291000B473F8BDF07A0028FBD0707F012801D095
:102920007577F8BD7477F8BD717F002907D0B17A4B
:10293000002904D0F07A0028F5D07570F8BDB17B7D
:10294000BB4F012902D03978090605D5E328F5D017
:10295000E728F3D06528F1D0F72829D0F82808D344
:10296000F27BB449002A2DD04007000F4018407870
:102970003072B1480078400603D4FFF73AF90028D6
:10298000DCD03878810604D5317AE2291FD02B2992
:102990001FD0400604D5307AE2281CD03D281CD038
:1029A000307AAF281BD0A5480078122825D028E01F
:1029B000F07A0128C2D1F07B002801D0F473F8BD71
:1029C000F573F8BD4007000F085C3072D1E7347230
:1029D000F8BD3472F8BD3472F8BD3472F8BD35718B
:1029E000B472F07A012806D0B07C0028F6D0B47416
:1029F00003F0DEFEF8BDB572F8BD914800780128FD
:102A0000FAD0307C002802D0FEF7CDFEF8BDFEF7EC
:102A100022FFF8BDF8B58349012008778748CA7AB4
:102A20000378C879874F89494000C619864D0978CF
:102A3000874C072B02D0082B25D06FE0385C7378C9
:102A4000C0000019C45C8348002A13D00078401EDF
:102A50002855082902D0FF2904D00EE0204601F0B5
:102A600035FC0AE07C48C079012806D1204601F0F7
:102A70002DFC02E00078801E2855295D7748415CD6
:102A800077480155F8BD002A48D0385C7178674A0C
:102A9000515C744E325C0A433254734A135C0B43EC
:102AA00013540120172731182039CA7F335C1A4389
:102AB000CA776D4A391A8D18203D535CED7F2B4340
:102AC0005354401CC0B21728EDD300256548475D1C
:102AD0006548405D07430026F80715D0FF21E80050
:102AE0000019805D5E4A115458490978082902D0BE
:102AF000FF2903D008E001F0E9FB05E05649C97958
:102B0000012901D101F0E2FB7F08761CF6B2062E06
:102B1000E2D36D1CEDB2172DD8D3F8BD092B02D02E
:102B20000F2B22D05EE0385C7378C0000019C45CC3
:102B3000002A02D00020285511E00120285508293C
:102B400002D0FF2904D00AE0204601F0BFFB06E0D6
:102B50004148C079012802D1204601F0B7FB295D28
:102B60003E48415C3E480155F8BD002A3AD0385CE9
:102B700071782E4A515C3B4A11543B4B19543B4EE1
:102B800031543B4F3954002536483949475D364862
:102B9000495D405D07433548405D084307430026D3
:102BA000F80715D0FF21E8000019805D2C4A115468
:102BB00026490978082902D0FF2903D008E001F04E
:102BC00085FB05E02449C979012901D101F07EFB8B
:102BD0007F08761CF6B2062EE2D36D1CEDB2172DDF
:102BE000D2D3F8BD122B02D10E4D002A4AD0132B9E
:102BF000F7D1002AF5D0385C1A4B3F221A541A49F3
:102C00000A5400251748475D1748405D07430026D2
:102C1000F80768D0FF21E8000019805D104A29E01C
:102C2000548D0000EC000020FC7F0000FE8D0000B1
:102C30005D010020AE8D00005E0100209A010020A1
:102C4000AA01002069C100004B0600209801002065
:102C5000B9C20000FD8F00003D030020A5BE0000AA
:102C6000780B0020DC040020F30400200A0500207B
:102C7000210500201154DC49097808292AD0FF29B0
:102C80002BD030E0D94A1278012AAAD1AA7A002A98
:102C9000A7D13A5C7078D2001219105CD44A082986
:102CA00007D2135CFF2B02D0FF2111540BE011540B
:102CB00009E0115CFF290AD0491C1154115C082954
:102CC00001D3FF211154CB4901200870F8BD002128
:102CD0001154F3E701F0FAFA05E0C749C97901296F
:102CE00001D101F0F3FA7F08761CF6B2062E8FD3DD
:102CF0006D1CEDB2172D85D3F8BD70B5BF4CC04922
:102D00006279208E88540025A571208FC00712D0CB
:102D10006079A179C0004018C0B2E071E572218EDF
:102D2000C90701D00121E172B649085C2072FFF7A2
:102D300071FEFFF7B6FD206B40082063A06B4008D2
:102D4000A063A079401CC0B2A0710828DDD370BD7B
:102D500070B5AA4D0024A87800282AD0A8486A791E
:102D6000815C286B4140A963002916D0E9780222D2
:102D7000002908D06B6B83420CD1491EC8B2E870A1
:102D8000002803D010E0EA7068630DE06C63FFF781
:102D9000B4FF09E0EA70686306E0EC70521CD0B240
:102DA0006871152800D36C71FEF7F0FEFEF78DFEFA
:102DB000AC70924820308178002902D08470FEF7F0
:102DC0000AFE70BD90484168C90BC90341608F4835
:102DD000416889098901416070478B480168C90BC6
:102DE000C903016089480168890989010160704748
:102DF000F0B582481026477908220424022582482B
:102E000082493B0005F0E2F8150C1115191D212629
:102E10002B30363C42484E545A5F63676B6F10004C
:102E20004168012211434160F0BD4168294341607E
:102E3000F0BD416821434160F0BD416811434160EC
:102E4000F0BD416831434160F0BD4168202211432B
:102E50004160F0BD4168402211434160F0BD4168CE
:102E6000802211434160F0BD4168FF2201321143CD
:102E70004160F0BD41680122520211434160F0BD42
:102E800041680122920211434160F0BD4168012274
:102E9000D20211434160F0BD416801221203114387
:102EA0004160F0BD41680122520311434160F0BD11
:102EB00041680122920311434160F0BD4A6801203C
:102EC00002434A60F0BD486828434860F0BD486846
:102ED00020434860F0BD486810434860F0BD486832
:102EE00030434860F0BD4A68202002434A60F0BD8C
:102EF00010B50024FFF771FFFFF77AFFFFF76DFFB2
:102F00000A2004F015FD42480068000400D40124A2
:102F100040480168090501D402210C4301684905B4
:102F200001D404210C430168890501D408210C4314
:102F30000168C90501D410210C430068000601D4C2
:102F400020200443204610BD2F480168324A114317
:102F500001602E4801683F221143016070472A48F2
:102F600041682D4A11434160284841683F2211437E
:102F700041607047F0B5214A2849137A5807400F3D
:102F8000095CD808264ED57A5C001746A31953373A
:102F9000002D09D0BD1F2D5C0D4202D0557C002DA7
:102FA0001BD0305D1072F0BD144D53352D5C0D42B9
:102FB00008D0124CFF26533471400D4025545878E8
:102FC0001072F0BD937A012B04D10C4B4D331D5C74
:102FD0000D431D54305D1072F0BD3C5C0C433C54FD
:102FE00058781072F0BD000098010020AA0100205E
:102FF0004F0500209C0100203D030020EC00002034
:10300000A0020020548C00000040044000600440F6
:103010000080044000A00440FF7F0000FE8D0000FF
:10302000548D000010B5FE490878C20709D0400849
:1030300040000870FB4805F0A3FCFB4988600320B2
:10304000087010BDF0B5F7481438047D437DF44E88
:10305000F54A31780027CD079078002D1ED0F14D2C
:10306000143D490849003170042C01D1022B07D0CE
:10307000FF20E875D7809770377097601770F0BDA4
:103080000121E975916829760B0A6B760B0CAB76FA
:10309000090EE976102108439070EBE78907EED519
:1030A000C006ECD5D780977037709760D7601770DF
:1030B000F0BD70B5DE49DD480880DE480178DE4CA1
:1030C00021702378FF2200210125142B1ED32378A1
:1030D000002B1BD02378802B18D0D84B1A70427845
:1030E000227182786271C278A271027AE272427AA7
:1030F0002273827A6273C07AA073D1480170A17B77
:1031000001293BD0A17B02293AD03AE0CD4B1A707D
:10311000427862708278A270C278E270027AE271BC
:10312000427A2272827A6272C07AA072C6480170B4
:10313000A17A012903D0A17A022902D002E0057008
:1031400000E005702178C148002914D02178802939
:1031500011D02178491E0170207ABD49087000F015
:10316000A5FC03F033F8BB48617ABB4A11700570C7
:1031700000F003FD70BD13210170EDE7057000E064
:1031800005702078B54914380870207BB449087060
:1031900007F0F6FA07F0C8FA607BB249087007F04A
:1031A0002FF970BD38B5A04C002222719C490878D7
:1031B000C30750D0400840000870E2802069E168F1
:1031C00080004018974A102103F0DCFE2069E26875
:1031D000800010580090A44882420DD101780388E5
:1031E00005681B09ED0A2B4305680079AD0C2B43DC
:1031F000C00103430B4363700020009B00991B0434
:10320000C9B21B0EC918009B1B021B0EC918009BDC
:103210001B0EC918A368C918A1602169491C216146
:10322000890051580091001DC0B24028E5D3E078D4
:10323000401EC0B2E07000280DD1032020708B48E2
:10324000824206D17F49FF200870FFF732FF01203C
:10325000207104F0D3FA38BDF0B5714908788207BF
:1032600031D5FD22104008706F4C0020E080E078DE
:10327000864601281FD90021E068844625696246F8
:10328000A8001058674AC7B2143A521817750304B9
:103290001E0E567503021B0E9375000ED075BA19DB
:1032A000D2181018A2688018A0606D1C2561091D35
:1032B000C9B24029E2D37046401EC0B2E070002877
:1032C00001D103202070F0BD574BD860D9701A701F
:1032D0007047544A143A117F527F120211438142BF
:1032E00006D94F49002008704F4988700120704767
:1032F0000020704738B50025009517284AD012DC09
:10330000132834D008DC052824D0102824D0112814
:1033100024D012281CD128E0142830D0152830D011
:10332000162815D134E0404CF0284AD00ADC21465A
:10333000897818283BD019283ED0AB2831D0E02816
:1033400006D132E0F12841D0F22841D0F32841D013
:10335000002038BD012038BD012038BD6A4601215A
:10336000434803F00FFE012038BD012038BD31482D
:103370006A4601213C3003F005FE012038BD0120E2
:1033800038BD6A4601213B4803F0FCFD012038BDF1
:10339000012038BD6A460121374803F0F3FD0120C2
:1033A00038BD04F032FA012038BD012038BDBF20FD
:1033B0000140A170012038BD40200143A1700120CF
:1033C00038BD03F039FA6571012038BD012038BDE0
:1033D000012038BD012038BDF8B512491439087DE7
:1033E0008446487D0B7F497F09020B430C49012528
:1033F0000A780026D7070C4C002F44D0094F143F01
:10340000AA430A706146042938D1FFF773FF0028E8
:1034100034D0FD75A07811210843A070E680F8BD76
:10342000E80000205C0200205C01002030750000F4
:10343000D8010020809700003D030020F501002006
:10344000EF01002098010020B00100209B01002026
:10345000AC0100209D010020AE010020F4010020FD
:10346000F8010020F6010020809000004093000049
:103470000F930000FCA30000BC900000FF20F87533
:10348000A670E680CBE79207C9D5A278D706C6D545
:10349000EF273A40A270E680674AFD2712783A404B
:1034A000142859D00CDC112830D004DC052815D0A4
:1034B00010280DD11EE0122835D0132808D13EE087
:1034C000152855D0162860D017286AD0AB2875D09B
:1034D000A6700E70A660A6602661A0E70220FFF726
:1034E000F8FE0028F7D15B1C99B201225348FFF780
:1034F000EBFEF0E70A20FFF7ECFE0028EBD15B1CA7
:1035000099B201224E48FFF7DFFEE4E70A700A2075
:10351000FFF7DFFE0028DED1022219464848FFF7F8
:10352000D3FE6571D7E71420FFF7D3FE0028D2D170
:103530005B1C99B201224348FFF7C6FECBE70A7035
:103540001420FFF7C6FE0028C5D1022219463D48C7
:10355000FFF7BAFE6571BEE73020FFF7BAFE00281C
:10356000B9D15B1C99B201223748FFF7ADFEB2E733
:103570000A703120FFF7ADFE0028ACD102221946B7
:103580003148FFF7A1FE6571A5E70120FFF7A1FE15
:103590000028A0D15B1C99B201222C48FFF794FEB1
:1035A00099E70A700120FFF794FE002893D10222C8
:1035B00019462648FFF788FE8DE7FFE70A700420CA
:1035C000207088E710B5224C2078030004F0FEFC40
:1035D0000504070A0D140600FFF7FEFE10BDFFF7F5
:1035E0003BFE10BDFFF7DEFD10BDFFF72BFD207980
:1035F0000028F9D1607110BDFFF714FD10BD70B542
:10360000134DE888401C80B2E8807D210901884282
:1036100010D900200F490024820052185461401C28
:10362000C0B21028F8D30448EC8004702C7004F069
:10363000E5F86C7170BD0000E8000020009000000B
:10364000C090000040930000C097000080900000F0
:103650005C01002048020020FB4932200880FB4921
:1036600000200870FA48012181714B21C900816155
:103670007047F64900200870F54901204871FF2085
:10368000F1492D3008807047F0B5F248F04A0578CE
:10369000F14854780127F14BF14E0021002D27D03D
:1036A000002C25D0EB4C2170446A3C434462092035
:1036B0001071A12018800020EA4C245C401C4500B9
:1036C0005C53C0B20828F7D3F068C006FCD4306859
:1036D000C0242043306030680006800F0328FAD0F1
:1036E0001888F061176151615170C8209070A9E08D
:1036F000DD4D2D78002D27D0002C25D0DA4C2170FF
:10370000446A3C43446211201071A22018800120B9
:10371000D64C4500245C5C53401CC0B21128F7D342
:10372000F068C006FCD43068C024204330603068A4
:103730000006800F0328FAD01888F06117615161E4
:103740005170C82090707DE0C94D2D78002D22D099
:10375000002C20D0C64C2170446A3C4344620320B4
:103760001071A3201880C34C65789D80A4785C807C
:10377000F368DB06FCD43368C0242343336033682A
:103780001B069B0F032BFAD0F0611761516151703A
:10379000C820907056E0B84D2D78002D27D0002C11
:1037A00025D0B54C2170446A3C434462022010711C
:1037B000A42018800120B14C4500245C5C53401CBF
:1037C000C0B20228F7D3F068C006FCD43068C02429
:1037D0002043306030680006800F0328FAD0188834
:1037E000F061176151615170C82090702AE0A44DBA
:1037F0002D78002D26D0002C24D0A14C2170446AB5
:103800003C43446203201071A620188000209D4C88
:10381000245C401C45005C53C0B20228F7D3F0681A
:10382000C006FCD43068C0242043306030680006F5
:10383000800F0328FAD01888F06117615161517028
:10384000C82090701078002814D084484030038835
:103850004088B12B02D15469022C05D07F4C4034F2
:10386000A488B62B07D00DE011705161400786493E
:10387000400F0870F0BD5A2804D1062C02D15569BA
:10388000032D02D0B62B08D00EE0117051614B20F1
:10389000C0009081FFF7EDFEF0BD5A2804D10A2C3C
:1038A00002D15569032D02D0B62B07D00DE011705F
:1038B00051615171918175480170F0BD512804D159
:1038C000852C02D15569032D02D0B62B05D00BE013
:1038D0001170D170FFF7C0FEF0BD512804D1762CD5
:1038E00002D15069032805D050690328F4D35161EF
:1038F0001170F0BD11705161917191615181F0BDF4
:10390000F0B5534B00259D715349486A0126304359
:10391000486203201871514AA6201080594C582043
:10392000207066700020215C401C4700D153C0B25B
:103930000228F8D34A48C168C906FCD40168C024EB
:103940002143016001680906890F0329FAD0118813
:10395000C1611E615D615D70C8209870142018817E
:10396000F0BD70B53C48416A012319434162384AB1
:10397000032010713949A6200880424D512028703B
:10398000622068703E48037000202C5C401C46009A
:103990008C53C0B20228F8D33148C468E406FCD482
:1039A0000468C0252C43046004682406A40F032C7B
:1039B000FAD00988C1611361002050615070C8209D
:1039C000907070BD22498878002814D0401EC0B283
:1039D00088704A7810430ED1012048701E498A6AC7
:1039E00002438A621E48016908229143016101690C
:1039F000042211430161704770B5174D28680123F7
:103A0000800704241249164A00280FDA506940073B
:103A10000BD5D5694869461C4E61104E40004036B2
:103A200035520B7090692043906170BD506940071A
:103A3000FBD50E790869B0422AD3A86A1843A86258
:103A40004B700020086129E0CA010020AB01002072
:103A500070010020FF000020004004404C030020C3
:103A600000C001404501002003010020B5020020F4
:103A70000101002016010020020100200F0100209A
:103A8000040100202801002048020020C401002079
:103A9000431C0B6104494000085AD061D069906909
:103AA0002043906170BD00004C030020F7490A7864
:103AB0000846007DFF2A03D0F54A105C4875704720
:103AC000F44A105C4875704710B54A008918F24AEC
:103AD000F24C535C23548918F14B4A781A54F14A3A
:103AE0008978115410BD0020EF4A00211154401C68
:103AF00080B27E28FAD3704770B5FFF7F4FFFF213C
:103B0000E2482D3181860121417100258570457281
:103B10008572017405720024E34EA01C4107490F11
:103B20002046FFF7D1FF3555641CE4B27E2CF4D358
:103B300070BD30B5FFF7D7FFD44C0820A071E071FD
:103B4000DA48002505706570FFF7D6FF234620335D
:103B50001D70402058708020987004206077A077F6
:103B6000E07707200003017921754079A075FFF700
:103B70009DFF012060711D7330BD10B5C34C60798D
:103B8000002816D0002060712078FF2804D0C84893
:103B9000A17D405CE07503E0C648A17D405CE07516
:103BA000A08EE17D4843FF21913104F003F9E086C6
:103BB000208710BDF0B5C048C04C0078C04DC14F43
:103BC00000280ED00020B84B8022195C002903D0B9
:103BD000410062526A527A52401CC0B27E28F4D32D
:103BE000F0BDB948AA230078A849002831D00020A8
:103BF000262807D18A8FD20704D04C22A352AB5279
:103C0000BB5221E03F2807D18A8F920704D57E223C
:103C1000A352AB52BB5217E00F2806D18A8F52072E
:103C200003D5E383EB83FB830EE06A2807D18A8FF9
:103C3000120704D5D422A352AB52BB5204E0002693
:103C40004200A652AE52BE52401CC0B27E28CFD314
:103C5000F0BD0020262808D18A8FD20705D04C223B
:103C6000A352AB52974EB35248E03F2808D18A8FF7
:103C7000920705D57E22A352AB52924EB3523DE03D
:103C80000F2807D18A8F520704D5E383EB838D4A2F
:103C9000D38333E06A2808D18A8F120705D5D4224E
:103CA000A352AB52874EB35228E07F4A125C002ADF
:103CB0001ED07A4E4F7D365CBE4656437E43370C4F
:103CC0007F1C4600B446A753754E7746365C564374
:103CD0007E43360C771C6646AF53724E7746365C91
:103CE00056437E43320C774F521C6646BA5305E06A
:103CF00000264200A652AE52724FBE52401CC0B2C5
:103D00007E28A7D3F0BD61490F20C86370475F4983
:103D10000020C86370475D482030C17900292AD04F
:103D20000021C1710178491CC9B20170674A13783A
:103D3000994202D31378C91A01704178491CC9B25B
:103D400041701378994202D31378C91A417081786F
:103D5000491CC9B281701378994202D31278891A2A
:103D600081705B4902788A5CC27042788A5C027119
:103D70008278895C4171704700B5FFF7CCFF434AF8
:103D80000023907C012824D052480078012820D0BC
:103D9000507C01281DD0D3634F480178C90701D05A
:103DA0000121D1630178890703D5D16B022319431F
:103DB000D1630078400703D5D06B04210843D0635A
:103DC0003A480078002803D0D06B08210843D0631C
:103DD00000BD508E0028FBD1B4205086D07C401C02
:103DE000D074C00702D0FFF792FF01E0FFF78BFF0E
:103DF000507C0128ECD1D07C0728E9D1537400BD58
:103E0000F0B52249887A401CC0B288720024042888
:103E100000D38C721D480C25807A304E002807D0C4
:103E200001281BD002285FD0184C032874D088E0EA
:103E3000002700213846FFF747FE7F1CFFB27E2F88
:103E4000F7D300202649274A35540C541454401CFB
:103E5000C0B20428F8D30D48447272E00027032151
:103E60003846FFF731FE7F1CFFB27E2FF7D30020CC
:103E70001B491C4A34540D541454401CC0B204282D
:103E8000F8D30249012048725BE02DE09801002040
:103E900040C5000050C50000A08E0000FE090020B3
:103EA0007C0A0020FA0A0020780B0020FA0000208B
:103EB00061C5000069C50000ED0000200A07002070
:103EC000060800200209002061010020FF8F000089
:103ED00025BF00000701002048020020DC0100206F
:103EE000E0010020E4010020002705213846FFF70B
:103EF000EBFD7F1CFFB27E2FF7D30020FD49FE4A69
:103F000034540C541554401CC0B20428F8D3FB4858
:103F10000221417215E0FFE7002707213846FFF72D
:103F2000D3FD7F1CFFB27E2FF7D30020F149F24A68
:103F300035540D541554401CC0B20428F8D3032046
:103F40006072EF4901200870F0BD10B5EB4C0922FA
:103F5000A256EC4BD00707D0002000211954401C7A
:103F6000C0B27E28FAD306E00020FF211954401C7D
:103F7000C0B27E28FAD3521C50B260720A2807DB06
:103F8000FFF7B1FDFDF74EFBFFF7D3FD06F00FFC89
:103F900010BD00B5FFF7A7FD00BD30B50020DA4920
:103FA000DA4B0A78DA4CD74D521E195C914206D092
:103FB000002904D0491EC9B21954615C2954401C1F
:103FC000C0B27E28F1D330BDF0B5D249CB480A78D3
:103FD000007E521ED2B200286FD00020CE4B195C5A
:103FE000491CC9B21954CB4B1C78A14202D3CA4C0C
:103FF00000212154C84C2D34215C491CC9B22154E4
:104000001C78A14203D3C44C00212D342154C24C4E
:104010005A34215C491CC9B221541B78994202D3FD
:10402000002123461954BC498731095C002938D046
:10403000B94B8733491E1954B7499E31095C002991
:1040400033D0B54B9E33491E1954B349B531095C81
:1040500000292ED0B04BB533491E19540021AF4B67
:10406000C400E418CB0729D0AB4BAD4D87331B5CA4
:10407000AC4EEF5C635CF754A74E9E36365CAF5D8A
:10408000A94EF754A44EB536365CAE5DA74DEE543E
:10409000491CC9B20629E5D3401CC0B217289DD3DC
:1040A000F0BD9D4987310A54C6E79B499E310A54A9
:1040B000CBE79949B5310A54D0E713E0964B984DB8
:1040C0001B5C984EEF5C635CF754934E2D36365C68
:1040D000AF5D954EF754904E5A36365CAE5D934DBB
:1040E000EE54D5E700208C4B195C491CC9B2195419
:1040F000884B1C78A14202D3874C00212154864C66
:104100002D34215C491CC9B221541C78A14203D32F
:10411000814C00212D3421547F4C5A34215C491CA0
:10412000C9B221541B78994202D300212346195465
:1041300079498731095C00292FD0774B8733491E95
:10414000195475499E31095C00292AD0724B9E335F
:10415000491E19547049B531095C002925D06E4BB0
:10416000B533491E195400216C4BC400E418CB0729
:104170001FD0694B6A4D1B5C6A4EEF5C635CF75461
:10418000654E2D36365CAF5D674EF754624E5A363B
:10419000365CAE5D654DEE541FE05F4987310A54D1
:1041A000CFE75D499E310A54D4E75B49B5310A54E3
:1041B000D9E7594B5A4D87331B5C5A4EEF5C635C11
:1041C000F754554E9E36365CAF5D574EF754524EFF
:1041D000B536365CAE5D554DEE54491CC9B2062964
:1041E000C5D3401CC0B2172800D27CE7F0BDF0B5A3
:1041F0004F4942480A78007E521E4E4D414ED4B27D
:10420000002831D00020444A443A115C491CC9B20C
:104210001154474B1B78994201D3002111543E4B56
:10422000173B195C002916D0491E195400213B4B3D
:10423000C200D218CB0710D0374B575C173B1B5C22
:10424000EB5CF355491CC9B20629F3D3401CC0B23C
:104250001728D8D3F0BD1C54E8E72F4B575C443BDC
:104260001B5CEB5CF355EDE700202B4A443A115CF4
:10427000491CC9B211542E4B1B78994201D300211D
:104280001154254B173B195C00290ED0491E1954B7
:104290000021224BC200D218CB0708D01E4B575C1E
:1042A000443B1B5CEB5CF35507E01C54F0E71A4BF6
:1042B000575C173B1B5CEB5CF355491CC9B20629E4
:1042C000EAD3401CC0B21728CFD3F0BD70B5054665
:1042D0000A4C2034207C401CC1B22174642901D9CD
:1042E0006439217414488069C0B203F045FDFBF7BE
:1042F00035FF23E0E0010020E401002098010020C8
:10430000EC010020780B0020FD8F00004B06002000
:10431000A5BE0000FF8F000010040020B9C20000FD
:1043200025BF0000FE0900207C0A0020FA0A0020B8
:10433000F68F0000968F000000E000E0217C40181E
:104340004106490EFE480278914202D90078081AC7
:10435000C1B248000818FB49FB4B0A5C5A5540188B
:10436000FA4A41785155FA498078485570BDF8B5F8
:10437000F84F387A401C38720024387E002809D063
:10438000F549085D4006000E0855C0090AD0012015
:10439000085507E0F049085D40080855002801D19C
:1043A00020200855EC48065D0025F00715D0EB48A5
:1043B000FF21E2001018405DE94A115439780829BC
:1043C00002D0FF2903D008E0FFF780FF05E0E549B0
:1043D000C979012901D1FFF779FF76086D1CEDB28B
:1043E000062DE2D3641CE4B2172CC6D3F8BDF8B591
:1043F000D84F397E3846007A002907D0002802D0ED
:10440000401E387209E01620387206E0401CC0B227
:104410003872172801D1002038723E7ACF4CF30051
:10442000E05CCF4AFF2111541B199D7851551B792F
:10443000D15416239B1BDB001B195D785155DD7889
:1044400051555B79D1543978082923D1FFF73EFFC4
:10445000387AC00000198078FFF738FF387AC0003A
:1044600000190079FFF732FF387A1725281AC000A3
:1044700000194078FFF72AFF387A281AC00000197F
:10448000C078FFF723FF387A281AC0000019007996
:10449000FFF71CFFF8BD30B50020B349B34B0A78D5
:1044A000B34CAF4D521E195C914206D0002904D086
:1044B000491CC9B21954615C2954401CC0B27E2801
:1044C000F1D330BDF0B50020AA49A34F0978491EA9
:1044D000CBB29F3F5DE09F49097E002920D09E4CD2
:1044E000CC3C215C491CC9B22154A24A1578A9428E
:1044F00001D300212154395C491CC9B239541478C4
:10450000A14201D300213954934C723C215C491CD7
:10451000C9B221541278914215D30021215412E0DE
:104520008D4ACC3A115C00290FD0491E1154395CD8
:1045300000290CD0491E3954874A723A115C00296F
:1045400007D0491E115400211DE01354EFE73B54DE
:10455000F2E71354F7E7804A874CCC3A125C874E57
:10456000A55C0C2242439219525C774EB5543D5CD7
:10457000764E655DB554784D723D2D5C645D744D2D
:10458000AC54491CC9B27E4A12789142E3D3401C14
:10459000C0B27C49097888429DD3F0BDF0B50020B7
:1045A000794E2CE06B49097E00290AD0315C491C08
:1045B000C9B23154754A1278914207D3002131545F
:1045C00004E0315C002908D0491E315400210C223E
:1045D0006A4B42436E4FD5180BE06C490978491E6F
:1045E0003154F3E7325C6C5CBB5C5D4A1355491C8B
:1045F000C9B2634A12789142F4D3401CC0B26149F7
:1046000009788842CED3F0BDF0B55248574E007EAF
:104610004D4B7E3E4D4F5749574D002828D0002026
:10462000524A7E3A145C641CE4B214540E78B442CC
:1046300002D30E78A41B1454125CAC5C1C541446B8
:1046400040340E78B44202D30E78A41BA4B22C5D81
:104650003C5480320C78A24202D30C78121B92B2E6
:10466000AC5C3B4A1454401CC0B27E28D8D3F0BD89
:104670000020325C002A1FD0521E3254325C324C71
:10468000AF5C1346275440320C78A24202D30C7818
:10469000121B92B2AC5C2D4A145480330A789342B8
:1046A00002D30A789A1A93B2294AEB5C1354401C3D
:1046B000C0B27E28DDD3F0BD0A78521E3254DDE749
:1046C000F0B500202349097E8C462A490978491E05
:1046D000CBB26146002922D02B4C4434215C491CCA
:1046E000C9B22154234A1578A94201D3002121548B
:1046F000254C7134215C491CC9B221541578A9425A
:1047000001D300212154144C723C215C491CC9B2D4
:1047100021541278914242D3002121543FE01A4A99
:104720004432115C00295BD0491E1154164A713283
:10473000115C002956D0491E1154074A723A29E0EB
:10474000AFC4000071C30000FE0900207C0A0020F5
:10475000FA0A002098010020DC040020B9C2000001
:10476000780B00203D030020FD8F00004B06002049
:10477000A5BE0000FF8F000025BF000024BD000083
:10478000958F0000948F0000CC030020F68F00006E
:10479000968F0000115C002926D0491E115400217B
:1047A000FD4CFE4A26462D3625465A35245C365C9D
:1047B0002D5C145D965D575DF94ACD00AA18125C18
:1047C000F84DAC54F84DAE54F84DAF54491CC9B235
:1047D0001729F1D3401CC0B2062800D279E7F0BDFA
:1047E0001354A3E71354A8E71354D8E7F0B50020F7
:1047F000EF490978491ECBB25BE0EE49097E0029FA
:1048000021D0E54C215C491CC9B22154E84A1578F5
:10481000A94201D300212154DF4C2D34215C491CD5
:10482000C9B221541578A94201D300212154DA4C90
:104830005A34215C491CC9B221541278914216D3D2
:104840000021215413E0D44A115C002936D0491EBE
:104850001154D14A2D32115C002931D0491E115416
:10486000CD4A5A32115C00292CD0491E1154002126
:10487000C94ECA4A34462D34365C2546965D2D35E0
:10488000245C2D5CB646165D525DCB4F94464200CB
:104890008418E7197A5CC34D7446AC54C24DAE54CB
:1048A000C24D6446AC54491CC9B20329F2D3401C22
:1048B000C0B2C249097888429FD3F0BD1354C8E7FB
:1048C0001354CDE71354D2E7F0B50020B949097E5F
:1048D0008E46B7490978491ECBB27146002921D0CE
:1048E000AD4C215C491CC9B22154B14A1578A9428A
:1048F00001D300212154A84C2D34215C491CC9B29C
:1049000021541578A94201D300212154A24C5A34D4
:10491000215C491CC9B221541278914216D300215E
:10492000215413E09C4A115C002931D0491E1154D6
:10493000994A2D32115C00292CD0491E1154964AF7
:104940005A32115C002927D0491E11540021924C83
:10495000924A254626465A352D362D5C245C365C17
:10496000575D145D965D8E4DC200521994466246A5
:10497000525C8C4DAC548C4DAE548C4DAF54491C94
:10498000C9B20629F3D3401CC0B21728A5D3F0BD85
:104990001354CDE71354D2E71354D7E7F0B5854F3E
:1049A000B87E401CC0B2B876814A00211378984284
:1049B00000D3B976F87E401CC0B2F87613789842DE
:1049C00000D3F976387F401CC0B238771278904215
:1049D00000D339770020714DB97EFC7E3F7F695C42
:1049E0002C5D704A704E714BED5D115434541D5462
:1049F000401CC0B27E28F8D3F0BDF8B5FFF773F8BD
:104A00000120654A1724CC3213191518115C203D7A
:104A1000E977211ACD18203DED7F5D54401C40B24E
:104A20001728F2DB0020907518700024614F5A4857
:104A3000CC30015D1730005D01434EB20025F00718
:104A400015D05748FF21E2001018405D5C4A115410
:104A50003978082902D0FF2903D008E0FFF736FC97
:104A600005E05849C979012901D1FFF72FFC7610DB
:104A70006D1C6DB2062DE2DB641C64B2172CD6DB14
:104A8000F8BDF8B50120444A1724CC321319151883
:104A9000115C203DE977211ACD18203DED7F5D5452
:104AA000401CC0B21728F2D3002090751870002463
:104AB000404F3948CC30065D1730005D0643002575
:104AC000F00715D03648FF21E2001018405D3C4A3F
:104AD00011543978082902D0FF2903D008E0FFF7E4
:104AE000F5FB05E03749C979012901D1FFF7EEFB54
:104AF00076086D1CEDB2062DE2D3641CE4B2172CCF
:104B0000D7D3F8BDF8B50024234E2A4F443E387E53
:104B100000280AD0305D401CC0B230552A490978BF
:104B2000884207D30020305504E0305D00280FD0C4
:104B3000401E30550025315D2448425C1848E9008C
:104B40000818005D1E490A543978082905D006E086
:104B50001D480078401E3055ECE7FFF7B7FB6D1C91
:104B6000EDB2172DE7D3641CE4B2062CCFD3F8BD09
:104B7000F0B50020084C144F443C3FE00D49097E3D
:104B8000002925D0215C491CC9B221543A789142B0
:104B900023D30021215420E01004002025BF000071
:104BA000B9C20000FE0900207C0A0020FA0A002099
:104BB000FF8F000098010020E5BF00006CC00000DE
:104BC000780B00203D030020F68F0000968F000038
:104BD000215C002917D0491E215400214200F84BC6
:104BE0008218D318F54E225CF64DB25C5E5CAA5575
:104BF000491CC9B20329F9D3401CC0B2F249097853
:104C00008842BBD3F0BD3978491E2154E5E7F8B599
:104C10000024EE4EEB4DFF27285D002806D0401EF5
:104C20002855641CE4B27E2CF6D3F8BD2F5530789D
:104C3000082809D0FF28F4D1E548C0790128F0D12F
:104C40002046FFF743FBECE72046FFF73FFBE8E792
:104C5000F8B5DE4F387A401C38720024DD49085D13
:104C60004006000E0855C00901D0012008550E5D10
:104C70000025F00715D0D848FF21E2001018405D4C
:104C8000D04A11543978082902D0FF2903D008E00E
:104C9000FFF71CFB05E0CE49C979012901D1FFF7D7
:104CA00015FB76086D1CEDB2062DE2D3641CE4B250
:104CB000172CD3D3F8BDF0B5C44FFF253878C14CBD
:104CC000FF2819D00026C3487330805DFF2807D025
:104CD000A5553978082906D23046FEF7F5FE06E0DC
:104CE0000020A05503E001463046FEF7EDFE761C9D
:104CF000F6B27E2EE7D3F0BD0020B84F952182009A
:104D000009025118096CCAB2802A07D03A5C002106
:104D1000A154401CC0B29028F0D3F0BD3A5CB04E14
:104D20000B0AB354AF4E0B0CB354AF4B090E99544E
:104D3000A554EEE730B50020AC49AD4B0A78AD4C38
:104D4000A04D521E195C914206D0002904D0491E84
:104D5000C9B21954615C2954401CC0B27E28F1D3F9
:104D600030BDF8B59B4D2878400828702B46453358
:104D7000187840001870012029182039CC7F2A5C4F
:104D80001443CC775108295419182039CE7F1C5C64
:104D90001A462643CE7761001154401C00B21728F2
:104DA000EADB8C4E1736B07D4008B07532461732BC
:104DB000907D40009075152033185C78315C0C4371
:104DC0005C704908315413185C78115C0C435C70BA
:104DD00049001154401E00B20028EDDA00247B4F38
:104DE0007C487C49065D1730005D064379482E30CB
:104DF0004531005D095D084306430025F00715D0E5
:104E00007548FF21E2001018405D6E4A1154397850
:104E1000082902D0FF2903D008E0FFF757FA05E080
:104E20006B49C979012901D1FFF750FA76106D1C41
:104E30002DB2062DE2DB641C24B2172CD0DBF8BDAA
:104E4000F8B5002063495C310A1852780A54401CB6
:104E5000C0B20928F8D316200A5C0B185A70401EFD
:104E6000C0B20928F8D2594FF87B01281BD0487AE4
:104E700040084872C00701D00120F873002555484A
:104E80005C30405D46080024F0071ED05248FF21E8
:104E9000EA001018005D4B4A1154397808290BD0EC
:104EA000FF290CD011E0487A4006000E4872C00974
:104EB000E4D00020F873E1E7FFF708FA05E0444981
:104EC000C979012901D1FFF701FA7608641CE4B21F
:104ED000062CD9D36D1CEDB2172DD0D3F8BDF0B58B
:104EE00000203A49444C0F7E364D002F0AD0215CF9
:104EF000491CC9B22154414A1278914207D300217A
:104F0000215404E0215C002913D0491E21540021C2
:104F1000314BC200D318294E225CB25C5E5CAA55AC
:104F2000491CC9B20629F9D3401CC0B21728DCD3EA
:104F3000F0BD32490978491E2154E8E770B5234E87
:104F40002C49307A095C3173401CC0B230722C4954
:104F5000097888421CD3002131723078082805D3A3
:104F6000FF2815D11A48C079012811D1174D2035D5
:104F7000E87B401CC0B2E873082800D3E973002422
:104F8000E97B2046FEF7A0FD641CE4B27E2CF7D33B
:104F900000200C4A317B1154401CC0B27E28FAD349
:104FA00070BD70B5094D17492A7E2846007A002A3F
:104FB0002ED0002828D0401E287231E0968F0000A5
:104FC000E5BF0000780B00206CC0000098010020B5
:104FD0003D030020DC040020B9C20000B0C4000082
:104FE000FE0900207C0A0020FA0A0020FD8F000044
:104FF0004B060020A5BE0000CC030020F68F000069
:10500000FE8F0000FF7F00000878401E287207E036
:10501000401CC0B228720978884201D10020287251
:10502000FE48297A405CFE4AFF211154297808295C
:1050300009D2002429782046FEF746FD641CE4B21C
:105040007E2CF7D370BDFF2903D1F649CA79002A17
:1050500002D0FFF73BF970BD4A78F34B1A548A78B7
:10506000F24B1A54C978F24A115470BDF0B5F14FA1
:10507000F148092179560078EB4DF04C814232DA43
:10508000002629E03978082908D2092038560C2250
:1050900050430019805DFEF717FD12E009203856D5
:1050A0000C23410041185843E54A0019805D525CC9
:1050B0002A54E34A8918DD4A4B781354DC4A89782C
:1050C0001154092179560C22FF20514309198A5D98
:1050D000D3498854761CF6B2DA4800788642D1D398
:1050E000787A401C78723878FF282FD100207872A7
:1050F00025E000201CE0CB4BDA79002A27D04A00BB
:105100008B180C224A43CE4F1219125CFE5CAE542F
:10511000DB19C64E5F78B7549E78C54B9E540C235E
:10512000FF224B431B191E5CBD4B9A55401CC0B25D
:10513000C44A12789042DED3BE48491C4172BD4A2F
:10514000BD480921515600788142D2DBF0BD5E781E
:105150000C224A431219125CAE549F78B34EB754D6
:10516000DE78B34B9E54DAE700B5B24B98781C2832
:105170000CD0FEF7B8FCFF209130988601205871C2
:10518000002018721C2199701874587200BDFEB569
:10519000FEF7A9FCA7485021818601214171002119
:1051A00001721A2282700174402282760292802259
:1051B000C2760192017700910020A3490B5C02990D
:1051C0005918A24A1478A14202D31478091B89B253
:1051D000C9B29F4C8C4621548734215401995918E7
:1051E0001478A14202D31478091B89B2CEB298492F
:1051F0002D310E5471310E5400995918137899427B
:1052000002D31278891A89B2CFB291495A310F5418
:105210005B310F5400218F4AC3009A1896468E4B7B
:1052200062469D5C7246525C7F4CA5547F4C9D5DEE
:10523000A5547F4DDB5DAB54491CC9B20629EED3A2
:10524000401CC0B21728B8D30020754AFF21115462
:10525000401CC0B27E28FAD3FEBD30B5754DA8788B
:1052600017280DD0FEF73FFCFF205F30A8860121F4
:1052700069711720A870002068722872A8722974BA
:105280002878082809D2002429782046FEF71CFC3B
:10529000641CE4B27E2CF7D330BD6249FF2802D1F2
:1052A000CA79002A09D0082816D0FF28F4D1C87975
:1052B0000128F1D1FFF76BFF30BD00205A4A5B4C4B
:1052C0005B4D4B7813548B782354CB782B54401C74
:1052D000C0B27E28F5D330BDFFF759FF30BDF0B521
:1052E000544CA078122808D01220A0700120207100
:1052F0000025A574FEF7F7FB25742078FF2836D02B
:10530000607E012812D0022813D0032813D004286D
:1053100014D0052814D0062815D0072815D0082841
:1053200016D0092816D0002817D017E041235B02B9
:1053300014E04A4B12E083231B020FE0484B0DE0C0
:1053400021239B020AE0474B08E085231B0205E06E
:10535000454B03E081231B0200E0444B00204449FD
:105360001A5C0A54401CC0B27E28F9D311E0002018
:10537000404E2B4F9521820009025118096CCAB288
:10538000802A09D0325C0021B954401CC0B2902858
:10539000F0D301202071F0BD325C234D0B0AAB54D9
:1053A000224D0B0CAB54224B090E9954FF21B954DA
:1053B000EBE7F8B51F4CA07818280CD0FEF793FB4C
:1053C0004B20C000A08601206071002121721822AC
:1053D000A270207421762078082809D2002521782F
:1053E0002846FEF771FB6D1CEDB27E2DF7D312E05F
:1053F000FF2810D10B49C87900280CD10A4A0B4D5F
:105400000B4E4B7813548B782B54CB783354401C71
:10541000C0B27E28F5D3002517482FE0228F000068
:10542000780B00203D030020FE0900207C0A0020AC
:10543000FA0A002098010020948F000024BD00008B
:10544000E08E0000958F0000CBBD0000FF8F0000B4
:1054500010040020B9C2000025BF000080820000B7
:105460008083000080840000808000008081000034
:105470004F050020B0C400008EBE0000475DFC4810
:1054800047550026F80715D0FA48FF21EA00101802
:10549000805DF94A11542178082902D0FF2903D0F0
:1054A00008E0FEF713FF05E0F449C979012901D1AD
:1054B000FEF70CFF7F08761CF6B2062EE2D36D1CB9
:1054C000EDB2172DA8D3F8BD00B5ED4B9878112893
:1054D0000DD0FEF708FBC8209886012159711120D4
:1054E000987000205872187298721974187600BD5E
:1054F000F8B5E34FB8780E2826D0FEF7F4FAFF206F
:105500009130B88601207871002139720E21B9706E
:1055100038740021D84DFF23DA48425CD4485C300F
:1055200042540020D34ECC00A419960701D5265C26
:10553000AB555208401CC0B20628F6D3491CC9B26C
:105540001729E9D30120F8733878082809D20024F4
:1055500039782046FEF7B8FA641CE4B27E2CF7D303
:10556000F8BDFF2803D1C549C879002812D000250D
:10557000BF485C30465D0024BE49E8004718B007CC
:1055800019D5385DBC4AFF211154BD490978082955
:105590000FD010E00020BC4ABC4CBD4D4B781354DA
:1055A0008B782354CB782B54401CC0B27E28F5D383
:1055B000F8BDFEF78BFE7608641CE4B2062CDED341
:1055C0006D1CEDB2172DD3D3F8BDFCB5FEF78BFAE9
:1055D000AB485021818601214171002101721622C0
:1055E000827001744022827601928022C2760092FB
:1055F00001778E460176002042E0A6490B5C0199B6
:105600005918A54A1478A14202D31478091B89B20B
:10561000CEB29749CC390E54009959181478A1424A
:1056200002D31478091B89B2914CC9B29F3C215412
:105630008C46714659181378994202D31278891A08
:1056400089B2CFB28A4972390F54002112E00C2579
:1056500002466A43924D914B5219525C8A4D9C5DB1
:10566000AC546446894D1C5DAC54894CDB5DA3543D
:10567000491CC9B28B4A12789142E8D3401CC0B28F
:10568000894909788842B8D300207B4AFF21115408
:10569000401CC0B27E28FAD3FCBDF0B578488078B3
:1056A000152828D0FEF71FFA75486421818601214C
:1056B00041710021017215228270817301747B4D4A
:1056C0006D4E14E07A48445C7A48445400200C2221
:1056D000734B4A43D21804E0175C2B5DF355401C12
:1056E000C0B2704B1B789842F6D3491CC9B26E48C1
:1056F00000788142E6D3624D2878082809D2002438
:1057000029782046FEF7E0F9641CE4B27E2CF7D33A
:10571000F0BDFF2803D15949C879002802D0FFF70E
:1057200054FFF0BD0020584B584C594A4D781D5439
:105730008D782554CD781554401CC0B27E28F5D301
:10574000F0BDF0B5FEF7CFF94D480121C172FF263B
:105750000673C82282864171032181700027077475
:105760000772402181768024C476077700204B4D54
:10577000454B695C2C5D464AED5D1954434F3C54E2
:105780001554401CC0B27E28F7D300203A490E546D
:10579000401CC0B27E28FAD3F0BD30B5384D00238E
:1057A000A87802280CD0FEF79EF90120E872FF21AC
:1057B0002973F021A98668710220A8702B742B72BE
:1057C0002878082809D2002429782046FEF77CF999
:1057D000641CE4B27E2CF7D330BDFF2803D12749E7
:1057E000C87900280CD0264D2035EB730024E97BC6
:1057F0002046FEF769F9641CE4B27E2CF7D330BD75
:105800000020214A214B224C4D7815548D781D548F
:10581000CD782554401CC0B27E28F5D330BD30B5BC
:10582000174DA878132816D0FEF75DF9FF209130A8
:10583000A88601206871002129721320A87029749C
:10584000697200200A4A1346173311541954401C38
:10585000C0B21728F9D3287808282DD20024297837
:105860002046FEF731F9641CE4B27E2CF7D330BD3C
:10587000DC040020B9C20000780B00203D030020AA
:105880009801002060BE0000FE0900207C0A002074
:10589000FA0A00204EBE0000FF8F000025BF000066
:1058A00024BD0000958F0000948F0000968F0000AB
:1058B00042BE0000CC030020FF28D8D1FC49C879A3
:1058C0000028D4D1FB4BFC4CFC4A4D781D548D78FC
:1058D0002554CD781554401CC0B27E28F5D3C6E7B8
:1058E00030B5F74DA878082814D0FEF7FCF89620BC
:1058F000A88601206871002129720822AA702874E4
:105900000020F04B1A46173A19541154401CC0B2EB
:105910001728F9D32878082809D2002429782046A6
:10592000FEF7D2F8641CE4B27E2CF7D39FE7FF2881
:105930009DD1DF49C879002899D1DE4ADE4CDF4D80
:105940004B7813548B782354CB782B54401CC0B223
:105950007E28F5D38BE770B5D94CA0780F2819D0E5
:10596000FEF7C1F8F020A086012060710F21A17020
:1059700020740020D34A00212E321546173DD14E07
:105980001346453B1154295431541954401CC0B29C
:105990001728F7D32078082809D20025217828462F
:1059A000FEF792F86D1CEDB27E2DF7D370BDC049A5
:1059B000FF2802D1CA79002A0FD0FF28F6D1C87972
:1059C0000128F3D100246107490F2046FEF77CF837
:1059D000641CE4B27E2CF6D370BD0020B54AB64BF1
:1059E000B64C4D7815548D781D54CD782554401CF7
:1059F000C0B27E28F5D370BDF0B5FEF774F8B0489C
:105A00000121C172FF27077364228286417105213B
:105A1000817000210174017201760020AA4AAB4E08
:105A2000AB49A84CC95CDA342154A24C755C2554AE
:105A30000C4640341578AC4202D31578641BA4B2EE
:105A4000355D9D4C255480311478A14202D31478E1
:105A5000091B89B2745C99490C545B1CDBB2062BA0
:105A600000D30023401CC0B27E28D9D3002099491E
:105A70000F54401CC0B27E28FAD3F0BD70B5904DD3
:105A8000A878062813D0FF202D30A8860120687141
:105A9000002028720621A97028748F498D4A43007E
:105AA0005B185B781354401CC0B27E28F7D328786B
:105AB000082809D2002429782046FEF705F8641C3E
:105AC000E4B27E2CF7D370BDFF2803D17849C879A2
:105AD000002808D000242046FEF7F8FB641CE4B23E
